{
  "contractName": "TRXMessages",
  "abi": [
    {
      "constant": true,
      "inputs": [
        {
          "name": "",
          "type": "uint256"
        }
      ],
      "name": "messages",
      "outputs": [
        {
          "name": "creator",
          "type": "address"
        },
        {
          "name": "message",
          "type": "string"
        },
        {
          "name": "tips",
          "type": "uint256"
        },
        {
          "name": "tippers",
          "type": "uint256"
        },
        {
          "name": "time",
          "type": "uint256"
        }
      ],
      "payable": false,
      "stateMutability": "view",
      "type": "function"
    },
    {
      "constant": true,
      "inputs": [],
      "name": "feeToPost",
      "outputs": [
        {
          "name": "",
          "type": "uint256"
        }
      ],
      "payable": false,
      "stateMutability": "view",
      "type": "function"
    },
    {
      "constant": true,
      "inputs": [],
      "name": "minimumTip",
      "outputs": [
        {
          "name": "",
          "type": "uint256"
        }
      ],
      "payable": false,
      "stateMutability": "view",
      "type": "function"
    },
    {
      "constant": true,
      "inputs": [],
      "name": "owner",
      "outputs": [
        {
          "name": "",
          "type": "address"
        }
      ],
      "payable": false,
      "stateMutability": "view",
      "type": "function"
    },
    {
      "constant": true,
      "inputs": [],
      "name": "current",
      "outputs": [
        {
          "name": "",
          "type": "uint256"
        }
      ],
      "payable": false,
      "stateMutability": "view",
      "type": "function"
    },
    {
      "constant": true,
      "inputs": [
        {
          "name": "",
          "type": "uint256"
        }
      ],
      "name": "topPosts",
      "outputs": [
        {
          "name": "",
          "type": "uint256"
        }
      ],
      "payable": false,
      "stateMutability": "view",
      "type": "function"
    },
    {
      "inputs": [],
      "payable": false,
      "stateMutability": "nonpayable",
      "type": "constructor"
    },
    {
      "anonymous": false,
      "inputs": [
        {
          "indexed": false,
          "name": "id",
          "type": "uint256"
        }
      ],
      "name": "MessagePosted",
      "type": "event"
    },
    {
      "anonymous": false,
      "inputs": [
        {
          "indexed": false,
          "name": "id",
          "type": "uint256"
        }
      ],
      "name": "MessageTipped",
      "type": "event"
    },
    {
      "anonymous": false,
      "inputs": [
        {
          "indexed": false,
          "name": "id",
          "type": "uint256"
        }
      ],
      "name": "MessageAddedToTopPosts",
      "type": "event"
    },
    {
      "anonymous": false,
      "inputs": [
        {
          "indexed": false,
          "name": "id",
          "type": "uint256"
        }
      ],
      "name": "MessageRemovedFromTopPosts",
      "type": "event"
    },
    {
      "constant": false,
      "inputs": [
        {
          "name": "message",
          "type": "string"
        }
      ],
      "name": "postMessage",
      "outputs": [],
      "payable": true,
      "stateMutability": "payable",
      "type": "function"
    },
    {
      "constant": false,
      "inputs": [
        {
          "name": "_id",
          "type": "uint256"
        }
      ],
      "name": "tipMessage",
      "outputs": [],
      "payable": true,
      "stateMutability": "payable",
      "type": "function"
    },
    {
      "constant": false,
      "inputs": [
        {
          "name": "_feeToPost",
          "type": "uint256"
        }
      ],
      "name": "updateFeeToPost",
      "outputs": [],
      "payable": false,
      "stateMutability": "nonpayable",
      "type": "function"
    },
    {
      "constant": false,
      "inputs": [
        {
          "name": "_minimumTip",
          "type": "uint256"
        }
      ],
      "name": "updateMinimumTip",
      "outputs": [],
      "payable": false,
      "stateMutability": "nonpayable",
      "type": "function"
    },
    {
      "constant": false,
      "inputs": [],
      "name": "withdraw",
      "outputs": [],
      "payable": false,
      "stateMutability": "nonpayable",
      "type": "function"
    },
    {
      "constant": false,
      "inputs": [
        {
          "name": "_owner",
          "type": "address"
        }
      ],
      "name": "changeOwner",
      "outputs": [],
      "payable": false,
      "stateMutability": "nonpayable",
      "type": "function"
    }
  ],
  "bytecode": "0x6080604052600160005534801561001557600080fd5b50d3801561002257600080fd5b50d2801561002f57600080fd5b5033601860006101000a81548173ffffffffffffffffffffffffffffffffffffffff021916908373ffffffffffffffffffffffffffffffffffffffff16021790555060006016819055506001601781905550610eef806100906000396000f3fe6080604052600436106100c4576000357c0100000000000000000000000000000000000000000000000000000000900480635af9b334116100815780635af9b3341461031d5780636630f88f146103725780638da5cb5b1461042d5780639fa6a6e31461049e578063a6f9dae1146104e3578063c48f660a1461054e576100c4565b80630d80fefd146100c957806316f02b52146101df57806334ba715814610234578063399721b6146102795780633ccfd60b146102be5780634d824ae1146102ef575b600080fd5b3480156100d557600080fd5b50d380156100e257600080fd5b50d280156100ef57600080fd5b5061011c6004803603602081101561010657600080fd5b81019080803590602001909291905050506105b7565b604051808673ffffffffffffffffffffffffffffffffffffffff1673ffffffffffffffffffffffffffffffffffffffff16815260200180602001858152602001848152602001838152602001828103825286818151815260200191508051906020019080838360005b838110156101a0578082015181840152602081019050610185565b50505050905090810190601f1680156101cd5780820380516001836020036101000a031916815260200191505b50965050505050505060405180910390f35b3480156101eb57600080fd5b50d380156101f857600080fd5b50d2801561020557600080fd5b506102326004803603602081101561021c57600080fd5b81019080803590602001909291905050506106a5565b005b34801561024057600080fd5b50d3801561024d57600080fd5b50d2801561025a57600080fd5b5061026361070b565b6040518082815260200191505060405180910390f35b34801561028557600080fd5b50d3801561029257600080fd5b50d2801561029f57600080fd5b506102a8610711565b6040518082815260200191505060405180910390f35b3480156102ca57600080fd5b50d380156102d757600080fd5b50d280156102e457600080fd5b506102ed610717565b005b61031b6004803603602081101561030557600080fd5b81019080803590602001909291905050506107f5565b005b34801561032957600080fd5b50d3801561033657600080fd5b50d2801561034357600080fd5b506103706004803603602081101561035a57600080fd5b8101908080359060200190929190505050610813565b005b61042b6004803603602081101561038857600080fd5b81019080803590602001906401000000008111156103a557600080fd5b8201836020820111156103b757600080fd5b803590602001918460018302840111640100000000831117156103d957600080fd5b91908080601f016020809104026020016040519081016040528093929190818152602001838380828437600081840152601f19601f820116905080830192505050505050509192919290505050610879565b005b34801561043957600080fd5b50d3801561044657600080fd5b50d2801561045357600080fd5b5061045c6109ce565b604051808273ffffffffffffffffffffffffffffffffffffffff1673ffffffffffffffffffffffffffffffffffffffff16815260200191505060405180910390f35b3480156104aa57600080fd5b50d380156104b757600080fd5b50d280156104c457600080fd5b506104cd6109f4565b6040518082815260200191505060405180910390f35b3480156104ef57600080fd5b50d380156104fc57600080fd5b50d2801561050957600080fd5b5061054c6004803603602081101561052057600080fd5b81019080803573ffffffffffffffffffffffffffffffffffffffff1690602001909291905050506109fa565b005b34801561055a57600080fd5b50d3801561056757600080fd5b50d2801561057457600080fd5b506105a16004803603602081101561058b57600080fd5b8101908080359060200190929190505050610a9a565b6040518082815260200191505060405180910390f35b60016020528060005260406000206000915090508060000160009054906101000a900473ffffffffffffffffffffffffffffffffffffffff1690806001018054600181600116156101000203166002900480601f0160208091040260200160405190810160405280929190818152602001828054600181600116156101000203166002900480156106895780601f1061065e57610100808354040283529160200191610689565b820191906000526020600020905b81548152906001019060200180831161066c57829003601f168201915b5050505050908060020154908060030154908060040154905085565b601860009054906101000a900473ffffffffffffffffffffffffffffffffffffffff1673ffffffffffffffffffffffffffffffffffffffff163373ffffffffffffffffffffffffffffffffffffffff1614151561070157600080fd5b8060168190555050565b60165481565b60175481565b601860009054906101000a900473ffffffffffffffffffffffffffffffffffffffff1673ffffffffffffffffffffffffffffffffffffffff163373ffffffffffffffffffffffffffffffffffffffff1614151561077357600080fd5b601860009054906101000a900473ffffffffffffffffffffffffffffffffffffffff1673ffffffffffffffffffffffffffffffffffffffff166108fc3073ffffffffffffffffffffffffffffffffffffffff16319081150290604051600060405180830381858888f193505050501580156107f2573d6000803e3d6000fd5b50565b601754341015151561080657600080fd5b6108108134610ab4565b50565b601860009054906101000a900473ffffffffffffffffffffffffffffffffffffffff1673ffffffffffffffffffffffffffffffffffffffff163373ffffffffffffffffffffffffffffffffffffffff1614151561086f57600080fd5b8060178190555050565b601654341015151561088a57600080fd5b60a0604051908101604052803373ffffffffffffffffffffffffffffffffffffffff168152602001828152602001600081526020016000815260200142815250600160008054815260200190815260200160002060008201518160000160006101000a81548173ffffffffffffffffffffffffffffffffffffffff021916908373ffffffffffffffffffffffffffffffffffffffff1602179055506020820151816001019080519060200190610941929190610e1e565b506040820151816002015560608201518160030155608082015181600401559050506000805490507fa0d1e73d61e6eb8b3dafafe7c97e9471ec8e405c1ae705ac6aafaf4dd9abd6ae816040518082815260200191505060405180910390a160008081548092919060010191905055506016543411156109ca576109c9816016543403610ab4565b5b5050565b601860009054906101000a900473ffffffffffffffffffffffffffffffffffffffff1681565b60005481565b601860009054906101000a900473ffffffffffffffffffffffffffffffffffffffff1673ffffffffffffffffffffffffffffffffffffffff163373ffffffffffffffffffffffffffffffffffffffff16141515610a5657600080fd5b80601860006101000a81548173ffffffffffffffffffffffffffffffffffffffff021916908373ffffffffffffffffffffffffffffffffffffffff16021790555050565b600281601481101515610aa957fe5b016000915090505481565b6000600160008481526020019081526020016000209050600073ffffffffffffffffffffffffffffffffffffffff168160000160009054906101000a900473ffffffffffffffffffffffffffffffffffffffff1673ffffffffffffffffffffffffffffffffffffffff1614151515610b2b57600080fd5b6000809050600081840390508260000160009054906101000a900473ffffffffffffffffffffffffffffffffffffffff1673ffffffffffffffffffffffffffffffffffffffff166108fc829081150290604051600060405180830381858888f19350505050158015610ba1573d6000803e3d6000fd5b50838360020160008282540192505081905550600183600301600082825401925050819055506000809050600080905060008019905060008090505b6014811015610cab5788600282601481101515610bf657fe5b01541415610c0a5780925060019350610cab565b8160016000600284601481101515610c1e57fe5b0154815260200190815260200160002060020154108015610c685750866002015460016000600284601481101515610c5257fe5b0154815260200190815260200160002060020154105b15610c9e5780925060016000600283601481101515610c8357fe5b01548152602001908152602001600020600201549150600193505b8080600101915050610bdd565b508215610ddd5787600283601481101515610cc257fe5b0154141515610dc757600073ffffffffffffffffffffffffffffffffffffffff1660016000600285601481101515610cf657fe5b0154815260200190815260200160002060000160009054906101000a900473ffffffffffffffffffffffffffffffffffffffff1673ffffffffffffffffffffffffffffffffffffffff16141515610d8f577fb077d9ca1b1e00de560609a59bdd030e33ed9ba9053bffd1394ee8689584fb76600283601481101515610d7757fe5b01546040518082815260200191505060405180910390a15b7f95e18d7bb0daaf6e75448c52191c33fb546388bec0cd984f95c47887ea18283e886040518082815260200191505060405180910390a15b87600283601481101515610dd757fe5b01819055505b7f344bf5a557396c298c4578c814e4ed4cf4781d057d83ccfead4d3dcf19660e3b886040518082815260200191505060405180910390a15050505050505050565b828054600181600116156101000203166002900490600052602060002090601f016020900481019282601f10610e5f57805160ff1916838001178555610e8d565b82800160010185558215610e8d579182015b82811115610e8c578251825591602001919060010190610e71565b5b509050610e9a9190610e9e565b5090565b610ec091905b80821115610ebc576000816000905550600101610ea4565b5090565b9056fea165627a7a7230582038ea27dc0faebaf5944ade9a1075c957be4280bde5c2dfe26078e29e8e69188f0029",
  "source": "pragma solidity ^0.5.4;\r\n\r\ncontract TRXMessages\r\n{\r\n    struct Message\r\n    {\r\n        address payable creator;\r\n        string message;\r\n        uint tips;\r\n        uint tippers;\r\n        uint time;\r\n    }\r\n\r\n    event MessagePosted(uint id);\r\n    event MessageTipped(uint id);\r\n    event MessageAddedToTopPosts(uint id);\r\n    event MessageRemovedFromTopPosts(uint id);\r\n\r\n    uint public current = 1;\r\n    mapping(uint => Message) public messages;\r\n\r\n    uint[20] public topPosts;\r\n    uint public feeToPost;\r\n    uint public minimumTip;\r\n    address payable public owner;\r\n\r\n    constructor() public\r\n    {\r\n        owner = msg.sender;\r\n        feeToPost = 0;\r\n        minimumTip = 1;\r\n    }\r\n\r\n    modifier onlyOwner()\r\n    {\r\n        require(msg.sender == owner);\r\n        _;\r\n    }\r\n\r\n    function postMessage(string memory message) public payable\r\n    {\r\n        require(msg.value >= feeToPost);\r\n\r\n        messages[current] = Message(\r\n        {\r\n            creator: msg.sender,\r\n            message: message,\r\n            tips: 0,\r\n            tippers: 0,\r\n            time: now\r\n        });\r\n\r\n        uint id = current;\r\n        emit MessagePosted(id);\r\n\r\n        current++;\r\n\r\n        if(msg.value > feeToPost)\r\n        {\r\n            _tipMessage(id, msg.value - feeToPost);\r\n        }\r\n    }\r\n\r\n    function tipMessage(uint _id) public payable\r\n    {\r\n        require(msg.value >= minimumTip);\r\n        _tipMessage(_id, msg.value);\r\n    }\r\n\r\n    function _tipMessage(uint _id, uint _amount) internal\r\n    {\r\n        Message storage m = messages[_id];\r\n\r\n        require(m.creator != address(0x00));\r\n\r\n        //uint fee = _amount / 100;\r\n        uint fee = 0;\r\n        uint tip = _amount - fee;\r\n\r\n        m.creator.transfer(tip);\r\n        m.tips += _amount;\r\n        m.tippers += 1;\r\n\r\n        bool found = false;\r\n        uint smallestIndex = 0;\r\n        uint smallestValue = ~uint256(0);\r\n        for(uint i = 0; i < topPosts.length; i++)\r\n        {\r\n            if(topPosts[i] == _id)\r\n            {\r\n                smallestIndex = i;\r\n                found = true;\r\n                break;\r\n            }\r\n            if(messages[topPosts[i]].tips < smallestValue && messages[topPosts[i]].tips < m.tips)\r\n            {\r\n                smallestIndex = i;\r\n                smallestValue = messages[topPosts[i]].tips;\r\n                found = true;\r\n            }\r\n        }\r\n\r\n        if(found)\r\n        {\r\n            if(topPosts[smallestIndex] != _id)\r\n            {\r\n                if(messages[topPosts[smallestIndex]].creator != address(0x00))\r\n                {\r\n                    emit MessageRemovedFromTopPosts(topPosts[smallestIndex]);\r\n                }\r\n                emit MessageAddedToTopPosts(_id);\r\n            }\r\n            topPosts[smallestIndex] = _id;\r\n        }\r\n\r\n        emit MessageTipped(_id);\r\n    }\r\n\r\n    function updateFeeToPost(uint _feeToPost) onlyOwner public\r\n    {\r\n        feeToPost = _feeToPost;\r\n    }\r\n\r\n    function updateMinimumTip(uint _minimumTip) onlyOwner public\r\n    {\r\n        minimumTip = _minimumTip;\r\n    }\r\n\r\n    function withdraw() onlyOwner public\r\n    {\r\n        owner.transfer(address(this).balance);\r\n    }\r\n\r\n    function changeOwner(address payable _owner) onlyOwner public\r\n    {\r\n        owner = _owner;\r\n    }\r\n}\r\n",
  "sourcePath": "C:/Users/yadev/Desktop/Blockchain/tron/kookiekrak-TronLink-Demo-Messages/contracts/TRXMessages.sol",
  "compiler": {
    "name": "solc",
    "version": "0.5.4+commit.d15a3125.mod.Emscripten.clang"
  },
  "schemaVersion": "2.0.1",
  "updatedAt": "2020-12-19T13:56:43.880Z"
}